{
  "contractName": "Records",
  "abi": [
    {
      "constant": true,
      "inputs": [],
      "name": "a",
      "outputs": [
        {
          "name": "",
          "type": "uint256"
        }
      ],
      "payable": false,
      "stateMutability": "view",
      "type": "function"
    },
    {
      "constant": true,
      "inputs": [],
      "name": "nextContactNum",
      "outputs": [
        {
          "name": "",
          "type": "uint256"
        }
      ],
      "payable": false,
      "stateMutability": "view",
      "type": "function"
    },
    {
      "constant": false,
      "inputs": [],
      "name": "addToNum",
      "outputs": [],
      "payable": false,
      "stateMutability": "nonpayable",
      "type": "function"
    },
    {
      "constant": false,
      "inputs": [
        {
          "name": "_patient",
          "type": "string"
        },
        {
          "name": "_medical_issues",
          "type": "string"
        },
        {
          "name": "_medications",
          "type": "string"
        },
        {
          "name": "_allergies",
          "type": "string"
        },
        {
          "name": "_weight",
          "type": "string"
        },
        {
          "name": "_height",
          "type": "string"
        }
      ],
      "name": "newContact",
      "outputs": [
        {
          "name": "contactID",
          "type": "uint256"
        }
      ],
      "payable": false,
      "stateMutability": "nonpayable",
      "type": "function"
    },
    {
      "constant": true,
      "inputs": [
        {
          "name": "contactID",
          "type": "uint256"
        }
      ],
      "name": "getContact",
      "outputs": [
        {
          "name": "patient",
          "type": "string"
        },
        {
          "name": "_medical_issues",
          "type": "string"
        },
        {
          "name": "_medications",
          "type": "string"
        },
        {
          "name": "_allergies",
          "type": "string"
        },
        {
          "name": "_weight",
          "type": "string"
        },
        {
          "name": "_height",
          "type": "string"
        }
      ],
      "payable": false,
      "stateMutability": "view",
      "type": "function"
    },
    {
      "constant": false,
      "inputs": [
        {
          "name": "contactID",
          "type": "uint256"
        },
        {
          "name": "_patient",
          "type": "string"
        },
        {
          "name": "_medical_issues",
          "type": "string"
        },
        {
          "name": "_medications",
          "type": "string"
        },
        {
          "name": "_allergies",
          "type": "string"
        },
        {
          "name": "_weight",
          "type": "string"
        },
        {
          "name": "_height",
          "type": "string"
        }
      ],
      "name": "updateContact",
      "outputs": [],
      "payable": false,
      "stateMutability": "nonpayable",
      "type": "function"
    }
  ],
  "bytecode": "0x6080604052600460005534801561001557600080fd5b50610e6e806100256000396000f300608060405260043610610078576000357c0100000000000000000000000000000000000000000000000000000000900463ffffffff1680630dbe671f1461007d57806384f60a23146100a8578063c3421890146100bf578063d4b7ef1714610186578063e6505e1e14610243578063fcf49dee14610505575b600080fd5b34801561008957600080fd5b50610092610530565b6040518082815260200191505060405180910390f35b3480156100b457600080fd5b506100bd610536565b005b3480156100cb57600080fd5b50610170600480360381019080803590602001908201803590602001919091929391929390803590602001908201803590602001919091929391929390803590602001908201803590602001919091929391929390803590602001908201803590602001919091929391929390803590602001908201803590602001919091929391929390803590602001908201803590602001919091929391929390505050610544565b6040518082815260200191505060405180910390f35b34801561019257600080fd5b50610241600480360381019080803590602001909291908035906020019082018035906020019190919293919293908035906020019082018035906020019190919293919293908035906020019082018035906020019190919293919293908035906020019082018035906020019190919293919293908035906020019082018035906020019190919293919293908035906020019082018035906020019190919293919293905050506107ed565b005b34801561024f57600080fd5b5061026e6004803603810190808035906020019092919050505061088c565b6040518080602001806020018060200180602001806020018060200187810387528d818151815260200191508051906020019080838360005b838110156102c25780820151818401526020810190506102a7565b50505050905090810190601f1680156102ef5780820380516001836020036101000a031916815260200191505b5087810386528c818151815260200191508051906020019080838360005b8381101561032857808201518184015260208101905061030d565b50505050905090810190601f1680156103555780820380516001836020036101000a031916815260200191505b5087810385528b818151815260200191508051906020019080838360005b8381101561038e578082015181840152602081019050610373565b50505050905090810190601f1680156103bb5780820380516001836020036101000a031916815260200191505b5087810384528a818151815260200191508051906020019080838360005b838110156103f45780820151818401526020810190506103d9565b50505050905090810190601f1680156104215780820380516001836020036101000a031916815260200191505b50878103835289818151815260200191508051906020019080838360005b8381101561045a57808201518184015260208101905061043f565b50505050905090810190601f1680156104875780820380516001836020036101000a031916815260200191505b50878103825288818151815260200191508051906020019080838360005b838110156104c05780820151818401526020810190506104a5565b50505050905090810190601f1680156104ed5780820380516001836020036101000a031916815260200191505b509c5050505050505050505050505060405180910390f35b34801561051157600080fd5b5061051a610ce0565b6040518082815260200191505060405180910390f35b60005481565b600160005401600081905550565b600060328d8d90501115801561055e575060328b8b905011155b801561056e575060328989905011155b801561057e575060328787905011155b801561058e575060328585905011155b801561059e575060328383905011155b15156105a957600080fd5b6001600081548092919060010191905055905060c0604051908101604052808e8e8080601f01602080910402602001604051908101604052809392919081815260200183838082843782019150505050505081526020018c8c8080601f01602080910402602001604051908101604052809392919081815260200183838082843782019150505050505081526020018a8a8080601f016020809104026020016040519081016040528093929190818152602001838380828437820191505050505050815260200188888080601f016020809104026020016040519081016040528093929190818152602001838380828437820191505050505050815260200186868080601f016020809104026020016040519081016040528093929190818152602001838380828437820191505050505050815260200184848080601f016020809104026020016040519081016040528093929190818152602001838380828437820191505050505050815250600260008381526020019081526020016000206000820151816000019080519060200190610745929190610ce6565b506020820151816001019080519060200190610762929190610ce6565b50604082015181600201908051906020019061077f929190610ce6565b50606082015181600301908051906020019061079c929190610ce6565b5060808201518160040190805190602001906107b9929190610ce6565b5060a08201518160050190805190602001906107d6929190610ce6565b509050508090509c9b505050505050505050505050565b6000600260008f815260200190815260200160002090508c8c826000019190610817929190610d66565b508a8a82600101919061082b929190610d66565b50888882600201919061083f929190610d66565b508686826003019190610853929190610d66565b508484826004019190610867929190610d66565b50828282600501919061087b929190610d66565b505050505050505050505050505050565b60608060608060608061089d610de6565b600154881015156108ad57600080fd5b6002600089815260200190815260200160002060c06040519081016040529081600082018054600181600116156101000203166002900480601f0160208091040260200160405190810160405280929190818152602001828054600181600116156101000203166002900480156109655780601f1061093a57610100808354040283529160200191610965565b820191906000526020600020905b81548152906001019060200180831161094857829003601f168201915b50505050508152602001600182018054600181600116156101000203166002900480601f016020809104026020016040519081016040528092919081815260200182805460018160011615610100020316600290048015610a075780601f106109dc57610100808354040283529160200191610a07565b820191906000526020600020905b8154815290600101906020018083116109ea57829003601f168201915b50505050508152602001600282018054600181600116156101000203166002900480601f016020809104026020016040519081016040528092919081815260200182805460018160011615610100020316600290048015610aa95780601f10610a7e57610100808354040283529160200191610aa9565b820191906000526020600020905b815481529060010190602001808311610a8c57829003601f168201915b50505050508152602001600382018054600181600116156101000203166002900480601f016020809104026020016040519081016040528092919081815260200182805460018160011615610100020316600290048015610b4b5780601f10610b2057610100808354040283529160200191610b4b565b820191906000526020600020905b815481529060010190602001808311610b2e57829003601f168201915b50505050508152602001600482018054600181600116156101000203166002900480601f016020809104026020016040519081016040528092919081815260200182805460018160011615610100020316600290048015610bed5780601f10610bc257610100808354040283529160200191610bed565b820191906000526020600020905b815481529060010190602001808311610bd057829003601f168201915b50505050508152602001600582018054600181600116156101000203166002900480601f016020809104026020016040519081016040528092919081815260200182805460018160011615610100020316600290048015610c8f5780601f10610c6457610100808354040283529160200191610c8f565b820191906000526020600020905b815481529060010190602001808311610c7257829003601f168201915b5050505050815250509050806000015181602001518260400151836060015184608001518560a001518595508494508393508292508191508090509650965096509650965096505091939550919395565b60015481565b828054600181600116156101000203166002900490600052602060002090601f016020900481019282601f10610d2757805160ff1916838001178555610d55565b82800160010185558215610d55579182015b82811115610d54578251825591602001919060010190610d39565b5b509050610d629190610e1d565b5090565b828054600181600116156101000203166002900490600052602060002090601f016020900481019282601f10610da757803560ff1916838001178555610dd5565b82800160010185558215610dd5579182015b82811115610dd4578235825591602001919060010190610db9565b5b509050610de29190610e1d565b5090565b60c0604051908101604052806060815260200160608152602001606081526020016060815260200160608152602001606081525090565b610e3f91905b80821115610e3b576000816000905550600101610e23565b5090565b905600a165627a7a7230582076e42f5ca73bf6ed37a06c5ca4ba3cdc49d9da56056df70826026c398b37244a0029",
  "source": "pragma solidity ^0.4.18;\n\ncontract Records{\n\tstruct Contact {\n\t\tstring patient;\n\t\tstring medical_issues;\n\t\tstring medications;\n\t\tstring allergies;\n\t\tstring weight;\n\t\tstring height;\n\t}\n\n\tuint public a = 4;\n\n\t//keeping track of the next contact id\n\tuint public nextContactNum; //uint is an alias for uint256. it defaults to 0. the highest it goes up to is 2^256-1\n\n\t//data structure that maps one data type to another, generally one maps uint, address or bytes32 to another data structure\n\tmapping (uint => Contact) contacts;\n\n\tfunction addToNum() external{\n\t\ta = a + 1;\n\t}\n\n\tfunction newContact(string _patient, string _medical_issues, string _medications, string _allergies, string _weight, string _height) external returns (uint contactID) {\n\n\t\trequire( (bytes(_patient).length <= 50) && (bytes(_medical_issues).length <= 50) && (bytes(_medications).length <= 50) && (bytes(_allergies).length <= 50) && (bytes(_weight).length <= 50) && (bytes(_height).length <= 50));\n\n\t    contactID = nextContactNum++; // contactID is return variable\n\n\t    // Creates new struct and saves in storage. We leave out the mapping type.\n\t    contacts[contactID] = Contact(_patient, _medical_issues, _medications, _allergies, _weight, _height);\n\n\t    return contactID;\n\t}\n\n\t//external means that this can only be called outside the contract\n\t//view means that the function accesses state but doesn't change it\n\t//last argument returns _work_address, _notes, _weight concat'd together to avoid stack too deep error\n\tfunction getContact(uint contactID) view external returns (string patient, string _medical_issues, string _medications, string _allergies, string _weight, string _height) {\n\t    require(contactID < nextContactNum);\n\t    Contact memory con = contacts[contactID];\n\n\t    return (con.patient, con.medical_issues, con.medications, con.allergies, con.weight, con.height);\n\t}\n\n\tfunction updateContact(uint contactID, string _patient, string _medical_issues, string _medications, string _allergies, string _weight, string _height) external {\n\t\tContact storage con = contacts[contactID];\n\n\t\tcon.patient = _patient;\n\t\tcon.medical_issues = _medical_issues;\n\t\tcon.medications = _medications;\n\t\tcon.allergies = _allergies;\n\t\tcon.weight = _weight;\n\t\tcon.height = _height;\n\t}\n}",
  "sourcePath": "D:\\Google Drive\\Blockchain Class\\health-records\\contracts\\Records.sol",
  "compiler": {
    "name": "solc",
    "version": "0.4.23+commit.124ca40d.Emscripten.clang"
  },
  "schemaVersion": "2.0.0",
  "updatedAt": "2018-05-13T21:27:14.436Z"
}